{
  "contractName": "Exchange",
  "abi": [
    {
      "inputs": [
        {
          "internalType": "address",
          "name": "_feeAccount",
          "type": "address"
        },
        {
          "internalType": "uint256",
          "name": "_feePercent",
          "type": "uint256"
        }
      ],
      "stateMutability": "nonpayable",
      "type": "constructor"
    },
    {
      "anonymous": false,
      "inputs": [
        {
          "indexed": false,
          "internalType": "address",
          "name": "token",
          "type": "address"
        },
        {
          "indexed": false,
          "internalType": "address",
          "name": "user",
          "type": "address"
        },
        {
          "indexed": false,
          "internalType": "uint256",
          "name": "amount",
          "type": "uint256"
        },
        {
          "indexed": false,
          "internalType": "uint256",
          "name": "balance",
          "type": "uint256"
        }
      ],
      "name": "Deposit",
      "type": "event"
    },
    {
      "anonymous": false,
      "inputs": [
        {
          "indexed": false,
          "internalType": "uint256",
          "name": "id",
          "type": "uint256"
        },
        {
          "indexed": false,
          "internalType": "address",
          "name": "user",
          "type": "address"
        },
        {
          "indexed": false,
          "internalType": "address",
          "name": "tokenGet",
          "type": "address"
        },
        {
          "indexed": false,
          "internalType": "uint256",
          "name": "amountGet",
          "type": "uint256"
        },
        {
          "indexed": false,
          "internalType": "address",
          "name": "tokenGive",
          "type": "address"
        },
        {
          "indexed": false,
          "internalType": "uint256",
          "name": "amountGive",
          "type": "uint256"
        },
        {
          "indexed": false,
          "internalType": "uint256",
          "name": "timestamp",
          "type": "uint256"
        }
      ],
      "name": "Order",
      "type": "event"
    },
    {
      "anonymous": false,
      "inputs": [
        {
          "indexed": false,
          "internalType": "address",
          "name": "token",
          "type": "address"
        },
        {
          "indexed": false,
          "internalType": "address",
          "name": "user",
          "type": "address"
        },
        {
          "indexed": false,
          "internalType": "uint256",
          "name": "amount",
          "type": "uint256"
        },
        {
          "indexed": false,
          "internalType": "uint256",
          "name": "balance",
          "type": "uint256"
        }
      ],
      "name": "WithDraw",
      "type": "event"
    },
    {
      "anonymous": false,
      "inputs": [
        {
          "indexed": false,
          "internalType": "uint256",
          "name": "id",
          "type": "uint256"
        },
        {
          "indexed": false,
          "internalType": "address",
          "name": "user",
          "type": "address"
        },
        {
          "indexed": false,
          "internalType": "address",
          "name": "tokenGet",
          "type": "address"
        },
        {
          "indexed": false,
          "internalType": "uint256",
          "name": "amountGet",
          "type": "uint256"
        },
        {
          "indexed": false,
          "internalType": "address",
          "name": "tokenGive",
          "type": "address"
        },
        {
          "indexed": false,
          "internalType": "uint256",
          "name": "amountGive",
          "type": "uint256"
        },
        {
          "indexed": false,
          "internalType": "uint256",
          "name": "timestamp",
          "type": "uint256"
        }
      ],
      "name": "cancelOrder",
      "type": "event"
    },
    {
      "inputs": [],
      "name": "feeAccount",
      "outputs": [
        {
          "internalType": "address",
          "name": "",
          "type": "address"
        }
      ],
      "stateMutability": "view",
      "type": "function"
    },
    {
      "inputs": [
        {
          "internalType": "uint256",
          "name": "",
          "type": "uint256"
        }
      ],
      "name": "orderCancel",
      "outputs": [
        {
          "internalType": "bool",
          "name": "",
          "type": "bool"
        }
      ],
      "stateMutability": "view",
      "type": "function"
    },
    {
      "inputs": [],
      "name": "orderCount",
      "outputs": [
        {
          "internalType": "uint256",
          "name": "",
          "type": "uint256"
        }
      ],
      "stateMutability": "view",
      "type": "function"
    },
    {
      "inputs": [
        {
          "internalType": "uint256",
          "name": "",
          "type": "uint256"
        }
      ],
      "name": "orders",
      "outputs": [
        {
          "internalType": "uint256",
          "name": "id",
          "type": "uint256"
        },
        {
          "internalType": "address",
          "name": "user",
          "type": "address"
        },
        {
          "internalType": "address",
          "name": "tokenGet",
          "type": "address"
        },
        {
          "internalType": "uint256",
          "name": "amountGet",
          "type": "uint256"
        },
        {
          "internalType": "address",
          "name": "tokenGive",
          "type": "address"
        },
        {
          "internalType": "uint256",
          "name": "amountGive",
          "type": "uint256"
        },
        {
          "internalType": "uint256",
          "name": "timestamp",
          "type": "uint256"
        }
      ],
      "stateMutability": "view",
      "type": "function"
    },
    {
      "inputs": [
        {
          "internalType": "address",
          "name": "",
          "type": "address"
        },
        {
          "internalType": "address",
          "name": "",
          "type": "address"
        }
      ],
      "name": "tokens",
      "outputs": [
        {
          "internalType": "uint256",
          "name": "",
          "type": "uint256"
        }
      ],
      "stateMutability": "view",
      "type": "function"
    },
    {
      "inputs": [],
      "name": "depositEther",
      "outputs": [],
      "stateMutability": "payable",
      "type": "function"
    },
    {
      "inputs": [
        {
          "internalType": "uint256",
          "name": "_account",
          "type": "uint256"
        }
      ],
      "name": "withdrawEther",
      "outputs": [],
      "stateMutability": "nonpayable",
      "type": "function"
    },
    {
      "inputs": [
        {
          "internalType": "address",
          "name": "_token",
          "type": "address"
        },
        {
          "internalType": "uint256",
          "name": "_value",
          "type": "uint256"
        }
      ],
      "name": "depositLWB",
      "outputs": [],
      "stateMutability": "nonpayable",
      "type": "function"
    },
    {
      "inputs": [
        {
          "internalType": "address",
          "name": "_token",
          "type": "address"
        },
        {
          "internalType": "uint256",
          "name": "_account",
          "type": "uint256"
        }
      ],
      "name": "withDrawLwb",
      "outputs": [],
      "stateMutability": "nonpayable",
      "type": "function"
    },
    {
      "inputs": [
        {
          "internalType": "address",
          "name": "_token",
          "type": "address"
        },
        {
          "internalType": "address",
          "name": "_user",
          "type": "address"
        }
      ],
      "name": "blanceOf",
      "outputs": [
        {
          "internalType": "uint256",
          "name": "",
          "type": "uint256"
        }
      ],
      "stateMutability": "view",
      "type": "function"
    },
    {
      "inputs": [
        {
          "internalType": "address",
          "name": "_tokenGet",
          "type": "address"
        },
        {
          "internalType": "uint256",
          "name": "_amountGet",
          "type": "uint256"
        },
        {
          "internalType": "address",
          "name": "_tokenGive",
          "type": "address"
        },
        {
          "internalType": "uint256",
          "name": "_acmountGive",
          "type": "uint256"
        }
      ],
      "name": "makeOder",
      "outputs": [],
      "stateMutability": "nonpayable",
      "type": "function"
    },
    {
      "inputs": [
        {
          "internalType": "uint256",
          "name": "_id",
          "type": "uint256"
        }
      ],
      "name": "cancelOder",
      "outputs": [],
      "stateMutability": "nonpayable",
      "type": "function"
    }
  ],
  "bytecode": "0x60806040523480156200001157600080fd5b5060405162001a3338038062001a3383398181016040528101906200003791906200012b565b816000806101000a81548173ffffffffffffffffffffffffffffffffffffffff021916908373ffffffffffffffffffffffffffffffffffffffff16021790555080600181905550505062000172565b600080fd5b600073ffffffffffffffffffffffffffffffffffffffff82169050919050565b6000620000b8826200008b565b9050919050565b620000ca81620000ab565b8114620000d657600080fd5b50565b600081519050620000ea81620000bf565b92915050565b6000819050919050565b6200010581620000f0565b81146200011157600080fd5b50565b6000815190506200012581620000fa565b92915050565b6000806040838503121562000145576200014462000086565b5b60006200015585828601620000d9565b9250506020620001688582860162000114565b9150509250929050565b6118b180620001826000396000f3fe6080604052600436106100c4576000357c010000000000000000000000000000000000000000000000000000000090048063508493bc11610081578063508493bc146101d557806365e17c9d1461021257806398ea5fca1461023d5780639bc896f9146102475780639c15caaf14610284578063a85c38ef146102ad576100c4565b80630f97fe21146100c95780631d543ebc146100f2578063208d24a41461011b5780632453ffa8146101445780633bed33ce1461016f5780634ac5859f14610198575b600080fd5b3480156100d557600080fd5b506100f060048036038101906100eb91906113f0565b6102f0565b005b3480156100fe57600080fd5b5061011960048036038101906101149190611430565b610621565b005b34801561012757600080fd5b50610142600480360381019061013d9190611497565b610814565b005b34801561015057600080fd5b506101596109f7565b60405161016691906114d3565b60405180910390f35b34801561017b57600080fd5b5061019660048036038101906101919190611497565b6109fd565b005b3480156101a457600080fd5b506101bf60048036038101906101ba91906114ee565b610c99565b6040516101cc91906114d3565b60405180910390f35b3480156101e157600080fd5b506101fc60048036038101906101f791906114ee565b610d20565b60405161020991906114d3565b60405180910390f35b34801561021e57600080fd5b50610227610d45565b604051610234919061153d565b60405180910390f35b610245610d69565b005b34801561025357600080fd5b5061026e60048036038101906102699190611497565b610f34565b60405161027b9190611573565b60405180910390f35b34801561029057600080fd5b506102ab60048036038101906102a691906113f0565b610f54565b005b3480156102b957600080fd5b506102d460048036038101906102cf9190611497565b6111fe565b6040516102e7979695949392919061158e565b60405180910390f35b600073ffffffffffffffffffffffffffffffffffffffff168273ffffffffffffffffffffffffffffffffffffffff160361032957600080fd5b80600260008473ffffffffffffffffffffffffffffffffffffffff1673ffffffffffffffffffffffffffffffffffffffff16815260200190815260200160002060003373ffffffffffffffffffffffffffffffffffffffff1673ffffffffffffffffffffffffffffffffffffffff1681526020019081526020016000205410156103b257600080fd5b61044181600260008573ffffffffffffffffffffffffffffffffffffffff1673ffffffffffffffffffffffffffffffffffffffff16815260200190815260200160002060003373ffffffffffffffffffffffffffffffffffffffff1673ffffffffffffffffffffffffffffffffffffffff168152602001908152602001600020546112a090919063ffffffff16565b600260008473ffffffffffffffffffffffffffffffffffffffff1673ffffffffffffffffffffffffffffffffffffffff16815260200190815260200160002060003373ffffffffffffffffffffffffffffffffffffffff1673ffffffffffffffffffffffffffffffffffffffff168152602001908152602001600020819055508173ffffffffffffffffffffffffffffffffffffffff1663a9059cbb33836040518363ffffffff167c01000000000000000000000000000000000000000000000000000000000281526004016105189291906115fd565b6020604051808303816000875af1158015610537573d6000803e3d6000fd5b505050506040513d601f19601f8201168201806040525081019061055b9190611652565b61056457600080fd5b7f2ffdfede8e3142dc22c86f615731d1d79115cf0652b6880e40eb6ef76ed86da2823383600260008773ffffffffffffffffffffffffffffffffffffffff1673ffffffffffffffffffffffffffffffffffffffff16815260200190815260200160002060003373ffffffffffffffffffffffffffffffffffffffff1673ffffffffffffffffffffffffffffffffffffffff16815260200190815260200160002054604051610615949392919061167f565b60405180910390a15050565b61063760016005546112f990919063ffffffff16565b6005819055506040518060e0016040528060055481526020013373ffffffffffffffffffffffffffffffffffffffff1681526020018573ffffffffffffffffffffffffffffffffffffffff1681526020018481526020018373ffffffffffffffffffffffffffffffffffffffff168152602001828152602001428152506003600060055481526020019081526020016000206000820151816000015560208201518160010160006101000a81548173ffffffffffffffffffffffffffffffffffffffff021916908373ffffffffffffffffffffffffffffffffffffffff16021790555060408201518160020160006101000a81548173ffffffffffffffffffffffffffffffffffffffff021916908373ffffffffffffffffffffffffffffffffffffffff1602179055506060820151816003015560808201518160040160006101000a81548173ffffffffffffffffffffffffffffffffffffffff021916908373ffffffffffffffffffffffffffffffffffffffff16021790555060a0820151816005015560c082015181600601559050507f9d33853d43e3607b4cc01fdc78338ff2dca6fef7db9232dae6d3eb55fbc3b109600554338686868642604051610806979695949392919061158e565b60405180910390a150505050565b6000600360008381526020019081526020016000206040518060e0016040529081600082015481526020016001820160009054906101000a900473ffffffffffffffffffffffffffffffffffffffff1673ffffffffffffffffffffffffffffffffffffffff1673ffffffffffffffffffffffffffffffffffffffff1681526020016002820160009054906101000a900473ffffffffffffffffffffffffffffffffffffffff1673ffffffffffffffffffffffffffffffffffffffff1673ffffffffffffffffffffffffffffffffffffffff168152602001600382015481526020016004820160009054906101000a900473ffffffffffffffffffffffffffffffffffffffff1673ffffffffffffffffffffffffffffffffffffffff1673ffffffffffffffffffffffffffffffffffffffff1681526020016005820154815260200160068201548152505090508181600001511461097057600080fd5b60016004600084815260200190815260200160002060006101000a81548160ff0219169083151502179055507ffbf3562103d5306c4494029351e2ca049a1c0d605a464443b18495daee8086d48160000151338360400151846060015185608001518660a00151426040516109eb979695949392919061158e565b60405180910390a15050565b60055481565b80600260008073ffffffffffffffffffffffffffffffffffffffff1673ffffffffffffffffffffffffffffffffffffffff16815260200190815260200160002060003373ffffffffffffffffffffffffffffffffffffffff1673ffffffffffffffffffffffffffffffffffffffff168152602001908152602001600020541015610a8657600080fd5b610b1581600260008073ffffffffffffffffffffffffffffffffffffffff1673ffffffffffffffffffffffffffffffffffffffff16815260200190815260200160002060003373ffffffffffffffffffffffffffffffffffffffff1673ffffffffffffffffffffffffffffffffffffffff168152602001908152602001600020546112a090919063ffffffff16565b600260008073ffffffffffffffffffffffffffffffffffffffff1673ffffffffffffffffffffffffffffffffffffffff16815260200190815260200160002060003373ffffffffffffffffffffffffffffffffffffffff1673ffffffffffffffffffffffffffffffffffffffff168152602001908152602001600020819055503373ffffffffffffffffffffffffffffffffffffffff166108fc829081150290604051600060405180830381858888f19350505050158015610bdb573d6000803e3d6000fd5b507f2ffdfede8e3142dc22c86f615731d1d79115cf0652b6880e40eb6ef76ed86da260003383600260008073ffffffffffffffffffffffffffffffffffffffff1673ffffffffffffffffffffffffffffffffffffffff16815260200190815260200160002060003373ffffffffffffffffffffffffffffffffffffffff1673ffffffffffffffffffffffffffffffffffffffff16815260200190815260200160002054604051610c8e949392919061167f565b60405180910390a150565b6000600260008473ffffffffffffffffffffffffffffffffffffffff1673ffffffffffffffffffffffffffffffffffffffff16815260200190815260200160002060008373ffffffffffffffffffffffffffffffffffffffff1673ffffffffffffffffffffffffffffffffffffffff16815260200190815260200160002054905092915050565b6002602052816000526040600020602052806000526040600020600091509150505481565b60008054906101000a900473ffffffffffffffffffffffffffffffffffffffff1681565b610df834600260008073ffffffffffffffffffffffffffffffffffffffff1673ffffffffffffffffffffffffffffffffffffffff16815260200190815260200160002060003373ffffffffffffffffffffffffffffffffffffffff1673ffffffffffffffffffffffffffffffffffffffff168152602001908152602001600020546112f990919063ffffffff16565b600260008073ffffffffffffffffffffffffffffffffffffffff1673ffffffffffffffffffffffffffffffffffffffff16815260200190815260200160002060003373ffffffffffffffffffffffffffffffffffffffff1673ffffffffffffffffffffffffffffffffffffffff168152602001908152602001600020819055507fdcbc1c05240f31ff3ad067ef1ee35ce4997762752e3a095284754544f4c709d760003334600260008073ffffffffffffffffffffffffffffffffffffffff1673ffffffffffffffffffffffffffffffffffffffff16815260200190815260200160002060003373ffffffffffffffffffffffffffffffffffffffff1673ffffffffffffffffffffffffffffffffffffffff16815260200190815260200160002054604051610f2a949392919061167f565b60405180910390a1565b60046020528060005260406000206000915054906101000a900460ff1681565b600073ffffffffffffffffffffffffffffffffffffffff168273ffffffffffffffffffffffffffffffffffffffff1603610f8d57600080fd5b8173ffffffffffffffffffffffffffffffffffffffff166323b872dd3330846040518463ffffffff167c0100000000000000000000000000000000000000000000000000000000028152600401610fe6939291906116c4565b6020604051808303816000875af1158015611005573d6000803e3d6000fd5b505050506040513d601f19601f820116820180604052508101906110299190611652565b61103257600080fd5b6110c181600260008573ffffffffffffffffffffffffffffffffffffffff1673ffffffffffffffffffffffffffffffffffffffff16815260200190815260200160002060003373ffffffffffffffffffffffffffffffffffffffff1673ffffffffffffffffffffffffffffffffffffffff168152602001908152602001600020546112f990919063ffffffff16565b600260008473ffffffffffffffffffffffffffffffffffffffff1673ffffffffffffffffffffffffffffffffffffffff16815260200190815260200160002060003373ffffffffffffffffffffffffffffffffffffffff1673ffffffffffffffffffffffffffffffffffffffff168152602001908152602001600020819055507fdcbc1c05240f31ff3ad067ef1ee35ce4997762752e3a095284754544f4c709d7823383600260008773ffffffffffffffffffffffffffffffffffffffff1673ffffffffffffffffffffffffffffffffffffffff16815260200190815260200160002060003373ffffffffffffffffffffffffffffffffffffffff1673ffffffffffffffffffffffffffffffffffffffff168152602001908152602001600020546040516111f2949392919061167f565b60405180910390a15050565b60036020528060005260406000206000915090508060000154908060010160009054906101000a900473ffffffffffffffffffffffffffffffffffffffff16908060020160009054906101000a900473ffffffffffffffffffffffffffffffffffffffff16908060030154908060040160009054906101000a900473ffffffffffffffffffffffffffffffffffffffff16908060050154908060060154905087565b6000828211156112e5576040517f08c379a00000000000000000000000000000000000000000000000000000000081526004016112dc90611758565b60405180910390fd5b81836112f191906117a7565b905092915050565b600080828461130891906117db565b90508381101561134d576040517f08c379a00000000000000000000000000000000000000000000000000000000081526004016113449061185b565b60405180910390fd5b8091505092915050565b600080fd5b600073ffffffffffffffffffffffffffffffffffffffff82169050919050565b60006113878261135c565b9050919050565b6113978161137c565b81146113a257600080fd5b50565b6000813590506113b48161138e565b92915050565b6000819050919050565b6113cd816113ba565b81146113d857600080fd5b50565b6000813590506113ea816113c4565b92915050565b6000806040838503121561140757611406611357565b5b6000611415858286016113a5565b9250506020611426858286016113db565b9150509250929050565b6000806000806080858703121561144a57611449611357565b5b6000611458878288016113a5565b9450506020611469878288016113db565b935050604061147a878288016113a5565b925050606061148b878288016113db565b91505092959194509250565b6000602082840312156114ad576114ac611357565b5b60006114bb848285016113db565b91505092915050565b6114cd816113ba565b82525050565b60006020820190506114e860008301846114c4565b92915050565b6000806040838503121561150557611504611357565b5b6000611513858286016113a5565b9250506020611524858286016113a5565b9150509250929050565b6115378161137c565b82525050565b6000602082019050611552600083018461152e565b92915050565b60008115159050919050565b61156d81611558565b82525050565b60006020820190506115886000830184611564565b92915050565b600060e0820190506115a3600083018a6114c4565b6115b0602083018961152e565b6115bd604083018861152e565b6115ca60608301876114c4565b6115d7608083018661152e565b6115e460a08301856114c4565b6115f160c08301846114c4565b98975050505050505050565b6000604082019050611612600083018561152e565b61161f60208301846114c4565b9392505050565b61162f81611558565b811461163a57600080fd5b50565b60008151905061164c81611626565b92915050565b60006020828403121561166857611667611357565b5b60006116768482850161163d565b91505092915050565b6000608082019050611694600083018761152e565b6116a1602083018661152e565b6116ae60408301856114c4565b6116bb60608301846114c4565b95945050505050565b60006060820190506116d9600083018661152e565b6116e6602083018561152e565b6116f360408301846114c4565b949350505050565b600082825260208201905092915050565b7f536166654d6174683a207375627472616374696f6e206f766572666c6f770000600082015250565b6000611742601e836116fb565b915061174d8261170c565b602082019050919050565b6000602082019050818103600083015261177181611735565b9050919050565b7f4e487b7100000000000000000000000000000000000000000000000000000000600052601160045260246000fd5b60006117b2826113ba565b91506117bd836113ba565b92508282039050818111156117d5576117d4611778565b5b92915050565b60006117e6826113ba565b91506117f1836113ba565b925082820190508082111561180957611808611778565b5b92915050565b7f536166654d6174683a206164646974696f6e206f766572666c6f770000000000600082015250565b6000611845601b836116fb565b91506118508261180f565b602082019050919050565b6000602082019050818103600083015261187481611838565b905091905056fea2646970667358221220c86c15b140f6823e80f5732fa91c2d08f49316183960d8f3babd10fe31ec3d3064736f6c63430008150033",
  "immutableReferences": {},
  "source": "// SPDX-License-Identifier: GPL-3.0\npragma solidity >=0.7.0 <0.9.0;\nimport \"openzeppelin-solidity/contracts/math/SafeMath.sol\";\nimport \"./LWB.sol\";\n\ncontract Exchange {\n    using SafeMath for uint256; //uint256 sub add\n\n    address public feeAccount;\n    uint256 feePercent;\n\n    address constant ETHER = address(0);\n\n    mapping(address => mapping(address => uint256)) public tokens;\n    //\n    struct _Order {\n        uint256 id;\n        address user;\n        address tokenGet;\n        uint256 amountGet;\n        address tokenGive;\n        uint256 amountGive;\n        uint256 timestamp;\n    }\n\n    mapping(uint256 => _Order) public orders;\n    mapping(uint256 => bool) public orderCancel;\n\n    uint256 public orderCount;\n\n    event Deposit(address token, address user, uint256 amount, uint256 balance);\n    event WithDraw(\n        address token,\n        address user,\n        uint256 amount,\n        uint256 balance\n    );\n\n    event Order(\n        uint256 id,\n        address user,\n        address tokenGet,\n        uint256 amountGet,\n        address tokenGive,\n        uint256 amountGive,\n        uint256 timestamp\n    );\n\n    event cancelOrder(\n        uint256 id,\n        address user,\n        address tokenGet,\n        uint256 amountGet,\n        address tokenGive,\n        uint256 amountGive,\n        uint256 timestamp\n    );\n\n    constructor(address _feeAccount, uint256 _feePercent) {\n        feeAccount = _feeAccount;\n        feePercent = _feePercent;\n    }\n    function depositEther() public payable {\n        tokens[ETHER][msg.sender] = tokens[ETHER][msg.sender].add(msg.value);\n        emit Deposit(ETHER, msg.sender, msg.value, tokens[ETHER][msg.sender]);\n    }\n    function withdrawEther(uint256 _account) public {\n        //acount\n        require(tokens[ETHER][msg.sender] >= _account);\n        tokens[ETHER][msg.sender] = tokens[ETHER][msg.sender].sub(_account);\n        payable(msg.sender).transfer(_account);\n        emit WithDraw(ETHER, msg.sender, _account, tokens[ETHER][msg.sender]);\n    }\n\n    function depositLWB(address _token, uint256 _value) public {\n        require(_token != ETHER);\n        require(LWB(_token).transferFrom(msg.sender, address(this), _value));\n        tokens[_token][msg.sender] = tokens[_token][msg.sender].add(_value);\n        emit Deposit(_token, msg.sender, _value, tokens[_token][msg.sender]);\n    }\n\n    function withDrawLwb(address _token, uint256 _account) public {\n        require(_token != ETHER);\n        require(tokens[_token][msg.sender] >= _account);\n\n        tokens[_token][msg.sender] = tokens[_token][msg.sender].sub(_account);\n        require(LWB(_token).transfer(msg.sender, _account));\n        emit WithDraw(_token, msg.sender, _account, tokens[_token][msg.sender]);\n    }\n\n    function blanceOf(\n        address _token,\n        address _user\n    ) public view returns (uint256) {\n        return tokens[_token][_user];\n    }\n\n    function makeOder(\n        address _tokenGet,\n        uint256 _amountGet,\n        address _tokenGive,\n        uint256 _acmountGive\n    ) public {\n      orderCount = orderCount.add(1);\n      orders[orderCount] = _Order(\n          orderCount,\n          msg.sender,\n          _tokenGet,\n          _amountGet,\n          _tokenGive,\n          _acmountGive,\n          block.timestamp\n      );\n      emit Order(\n          orderCount,\n          msg.sender,\n          _tokenGet,\n          _amountGet,\n          _tokenGive,\n          _acmountGive,\n          block.timestamp\n      );\n    }\n    function cancelOder(uint256 _id) public {\n      _Order memory myorder = orders[_id];\n      require(myorder.id == _id);\n      orderCancel[_id] = true; \n\n      emit cancelOrder(\n        myorder.id,\n        msg.sender, \n        myorder.tokenGet, \n        myorder.amountGet, \n        myorder.tokenGive, \n        myorder.amountGive, \n        block.timestamp\n      );\n    }\n}\n",
  "sourcePath": "/Users/luweijun/Desktop/webpack/contracts/Exchange.sol",
  "compiler": {
    "name": "solc",
    "version": "0.8.21+commit.d9974bed.Emscripten.clang"
  },
  "schemaVersion": "3.4.16",
  "updatedAt": "2025-02-24T05:32:42.817Z",
  "devdoc": {
    "kind": "dev",
    "methods": {},
    "version": 1
  },
  "userdoc": {
    "kind": "user",
    "methods": {},
    "version": 1
  }
}