{
  "contractName": "LWB",
  "abi": [
    {
      "inputs": [],
      "stateMutability": "nonpayable",
      "type": "constructor"
    },
    {
      "anonymous": false,
      "inputs": [
        {
          "indexed": true,
          "internalType": "address",
          "name": "_owner",
          "type": "address"
        },
        {
          "indexed": true,
          "internalType": "address",
          "name": "_spender",
          "type": "address"
        },
        {
          "indexed": false,
          "internalType": "uint256",
          "name": "_value",
          "type": "uint256"
        }
      ],
      "name": "Approve",
      "type": "event"
    },
    {
      "anonymous": false,
      "inputs": [
        {
          "indexed": true,
          "internalType": "address",
          "name": "_form",
          "type": "address"
        },
        {
          "indexed": true,
          "internalType": "address",
          "name": "_to",
          "type": "address"
        },
        {
          "indexed": false,
          "internalType": "uint256",
          "name": "_value",
          "type": "uint256"
        }
      ],
      "name": "Transfer",
      "type": "event"
    },
    {
      "inputs": [
        {
          "internalType": "address",
          "name": "",
          "type": "address"
        },
        {
          "internalType": "address",
          "name": "",
          "type": "address"
        }
      ],
      "name": "allowance",
      "outputs": [
        {
          "internalType": "uint256",
          "name": "",
          "type": "uint256"
        }
      ],
      "stateMutability": "view",
      "type": "function",
      "constant": true
    },
    {
      "inputs": [
        {
          "internalType": "address",
          "name": "",
          "type": "address"
        }
      ],
      "name": "blanceOf",
      "outputs": [
        {
          "internalType": "uint256",
          "name": "",
          "type": "uint256"
        }
      ],
      "stateMutability": "view",
      "type": "function",
      "constant": true
    },
    {
      "inputs": [],
      "name": "decimals",
      "outputs": [
        {
          "internalType": "uint256",
          "name": "",
          "type": "uint256"
        }
      ],
      "stateMutability": "view",
      "type": "function",
      "constant": true
    },
    {
      "inputs": [],
      "name": "name",
      "outputs": [
        {
          "internalType": "string",
          "name": "",
          "type": "string"
        }
      ],
      "stateMutability": "view",
      "type": "function",
      "constant": true
    },
    {
      "inputs": [],
      "name": "symbol",
      "outputs": [
        {
          "internalType": "string",
          "name": "",
          "type": "string"
        }
      ],
      "stateMutability": "view",
      "type": "function",
      "constant": true
    },
    {
      "inputs": [],
      "name": "totalSupply",
      "outputs": [
        {
          "internalType": "uint256",
          "name": "",
          "type": "uint256"
        }
      ],
      "stateMutability": "view",
      "type": "function",
      "constant": true
    },
    {
      "inputs": [
        {
          "internalType": "address",
          "name": "_to",
          "type": "address"
        },
        {
          "internalType": "uint256",
          "name": "_value",
          "type": "uint256"
        }
      ],
      "name": "transfer",
      "outputs": [
        {
          "internalType": "bool",
          "name": "success",
          "type": "bool"
        }
      ],
      "stateMutability": "nonpayable",
      "type": "function"
    },
    {
      "inputs": [
        {
          "internalType": "address",
          "name": "_spender",
          "type": "address"
        },
        {
          "internalType": "uint256",
          "name": "_value",
          "type": "uint256"
        }
      ],
      "name": "approve",
      "outputs": [
        {
          "internalType": "bool",
          "name": "success",
          "type": "bool"
        }
      ],
      "stateMutability": "nonpayable",
      "type": "function"
    },
    {
      "inputs": [
        {
          "internalType": "address",
          "name": "_from",
          "type": "address"
        },
        {
          "internalType": "address",
          "name": "_to",
          "type": "address"
        },
        {
          "internalType": "uint256",
          "name": "_value",
          "type": "uint256"
        }
      ],
      "name": "transferFrom",
      "outputs": [
        {
          "internalType": "bool",
          "name": "success",
          "type": "bool"
        }
      ],
      "stateMutability": "nonpayable",
      "type": "function"
    }
  ],
  "bytecode": "0x60806040526040518060400160405280600381526020017f4c57420000000000000000000000000000000000000000000000000000000000815250600090816200004a919062000398565b506040518060400160405280600381526020017f4c574200000000000000000000000000000000000000000000000000000000008152506001908162000091919062000398565b506012600255348015620000a457600080fd5b50600254600a620000b6919062000602565b620f4240620000c6919062000653565b600381905550600354600460003373ffffffffffffffffffffffffffffffffffffffff1673ffffffffffffffffffffffffffffffffffffffff168152602001908152602001600020819055506200069e565b600081519050919050565b7f4e487b7100000000000000000000000000000000000000000000000000000000600052604160045260246000fd5b7f4e487b7100000000000000000000000000000000000000000000000000000000600052602260045260246000fd5b600060028204905060018216806200019a57607f821691505b602082108103620001b057620001af62000152565b5b50919050565b60008190508160005260206000209050919050565b60006020601f8301049050919050565b60008160020a8302905092915050565b6000600883026200021d7fffffffffffffffffffffffffffffffffffffffffffffffffffffffffffffffff82620001db565b620002298683620001db565b95508019841693508086168417925050509392505050565b6000819050919050565b6000819050919050565b600062000276620002706200026a8462000241565b6200024b565b62000241565b9050919050565b6000819050919050565b620002928362000255565b620002aa620002a1826200027d565b848454620001eb565b825550505050565b600090565b620002c1620002b2565b620002ce81848462000287565b505050565b5b81811015620002f657620002ea600082620002b7565b600181019050620002d4565b5050565b601f82111562000345576200030f81620001b6565b6200031a84620001cb565b810160208510156200032a578190505b620003426200033985620001cb565b830182620002d3565b50505b505050565b60008160020a8304905092915050565b60006200036d600019846008026200034a565b1980831691505092915050565b60006200038883836200035a565b9150826002028217905092915050565b620003a38262000118565b67ffffffffffffffff811115620003bf57620003be62000123565b5b620003cb825462000181565b620003d8828285620002fa565b600060209050601f831160018114620004105760008415620003fb578287015190505b6200040785826200037a565b86555062000477565b601f1984166200042086620001b6565b60005b828110156200044a5784890151825560018201915060208501945060208101905062000423565b868310156200046a578489015162000466601f8916826200035a565b8355505b6001600288020188555050505b505050505050565b7f4e487b7100000000000000000000000000000000000000000000000000000000600052601160045260246000fd5b6000600282049050919050565b6000808291508390505b60018511156200050d57808604811115620004e557620004e46200047f565b5b6001851615620004f55780820291505b80810290506200050585620004ae565b9450620004c5565b94509492505050565b600082620005285760019050620005fb565b81620005385760009050620005fb565b81600181146200055157600281146200055c5762000592565b6001915050620005fb565b60ff8411156200057157620005706200047f565b5b8360020a9150848211156200058b576200058a6200047f565b5b50620005fb565b5060208310610133831016604e8410600b8410161715620005cc5782820a905083811115620005c657620005c56200047f565b5b620005fb565b620005db8484846001620004bb565b92509050818404811115620005f557620005f46200047f565b5b81810290505b9392505050565b60006200060f8262000241565b91506200061c8362000241565b92506200064b7fffffffffffffffffffffffffffffffffffffffffffffffffffffffffffffffff848462000516565b905092915050565b6000620006608262000241565b91506200066d8362000241565b92508282026200067d8162000241565b915082820484148315176200069757620006966200047f565b5b5092915050565b610e7780620006ae6000396000f3fe608060405234801561001057600080fd5b50600436106100b0576000357c01000000000000000000000000000000000000000000000000000000009004806323b872dd1161008357806323b872dd14610151578063313ce5671461018157806395d89b411461019f578063a9059cbb146101bd578063dd62ed3e146101ed576100b0565b806306fdde03146100b5578063095ea7b3146100d357806312568c241461010357806318160ddd14610133575b600080fd5b6100bd61021d565b6040516100ca9190610a57565b60405180910390f35b6100ed60048036038101906100e89190610b12565b6102ab565b6040516100fa9190610b6d565b60405180910390f35b61011d60048036038101906101189190610b88565b6103d5565b60405161012a9190610bc4565b60405180910390f35b61013b6103ed565b6040516101489190610bc4565b60405180910390f35b61016b60048036038101906101669190610bdf565b6103f3565b6040516101789190610b6d565b60405180910390f35b6101896105ef565b6040516101969190610bc4565b60405180910390f35b6101a76105f5565b6040516101b49190610a57565b60405180910390f35b6101d760048036038101906101d29190610b12565b610683565b6040516101e49190610b6d565b60405180910390f35b61020760048036038101906102029190610c32565b6106d2565b6040516102149190610bc4565b60405180910390f35b6000805461022a90610ca1565b80601f016020809104026020016040519081016040528092919081815260200182805461025690610ca1565b80156102a35780601f10610278576101008083540402835291602001916102a3565b820191906000526020600020905b81548152906001019060200180831161028657829003601f168201915b505050505081565b60008073ffffffffffffffffffffffffffffffffffffffff168373ffffffffffffffffffffffffffffffffffffffff16036102e557600080fd5b81600560003373ffffffffffffffffffffffffffffffffffffffff1673ffffffffffffffffffffffffffffffffffffffff16815260200190815260200160002060008573ffffffffffffffffffffffffffffffffffffffff1673ffffffffffffffffffffffffffffffffffffffff168152602001908152602001600020819055508273ffffffffffffffffffffffffffffffffffffffff163373ffffffffffffffffffffffffffffffffffffffff167f6e11fb1b7f119e3f2fa29896ef5fdf8b8a2d0d4df6fe90ba8668e7d8b2ffa25e846040516103c39190610bc4565b60405180910390a36001905092915050565b60046020528060005260406000206000915090505481565b60035481565b600081600460008673ffffffffffffffffffffffffffffffffffffffff1673ffffffffffffffffffffffffffffffffffffffff16815260200190815260200160002054101561044157600080fd5b81600560008673ffffffffffffffffffffffffffffffffffffffff1673ffffffffffffffffffffffffffffffffffffffff16815260200190815260200160002060003373ffffffffffffffffffffffffffffffffffffffff1673ffffffffffffffffffffffffffffffffffffffff1681526020019081526020016000205410156104ca57600080fd5b61055982600560008773ffffffffffffffffffffffffffffffffffffffff1673ffffffffffffffffffffffffffffffffffffffff16815260200190815260200160002060003373ffffffffffffffffffffffffffffffffffffffff1673ffffffffffffffffffffffffffffffffffffffff168152602001908152602001600020546106f790919063ffffffff16565b600560008673ffffffffffffffffffffffffffffffffffffffff1673ffffffffffffffffffffffffffffffffffffffff16815260200190815260200160002060003373ffffffffffffffffffffffffffffffffffffffff1673ffffffffffffffffffffffffffffffffffffffff168152602001908152602001600020819055506105e4848484610750565b600190509392505050565b60025481565b6001805461060290610ca1565b80601f016020809104026020016040519081016040528092919081815260200182805461062e90610ca1565b801561067b5780601f106106505761010080835404028352916020019161067b565b820191906000526020600020905b81548152906001019060200180831161065e57829003601f168201915b505050505081565b60008073ffffffffffffffffffffffffffffffffffffffff168373ffffffffffffffffffffffffffffffffffffffff16036106bd57600080fd5b6106c8338484610750565b6001905092915050565b6005602052816000526040600020602052806000526040600020600091509150505481565b60008282111561073c576040517f08c379a000000000000000000000000000000000000000000000000000000000815260040161073390610d1e565b60405180910390fd5b81836107489190610d6d565b905092915050565b600073ffffffffffffffffffffffffffffffffffffffff168273ffffffffffffffffffffffffffffffffffffffff160361078957600080fd5b80600460008573ffffffffffffffffffffffffffffffffffffffff1673ffffffffffffffffffffffffffffffffffffffff1681526020019081526020016000205410156107d557600080fd5b61082781600460008673ffffffffffffffffffffffffffffffffffffffff1673ffffffffffffffffffffffffffffffffffffffff168152602001908152602001600020546106f790919063ffffffff16565b600460008573ffffffffffffffffffffffffffffffffffffffff1673ffffffffffffffffffffffffffffffffffffffff168152602001908152602001600020819055506108bc81600460008573ffffffffffffffffffffffffffffffffffffffff1673ffffffffffffffffffffffffffffffffffffffff1681526020019081526020016000205461096990919063ffffffff16565b600460008473ffffffffffffffffffffffffffffffffffffffff1673ffffffffffffffffffffffffffffffffffffffff168152602001908152602001600020819055508173ffffffffffffffffffffffffffffffffffffffff168373ffffffffffffffffffffffffffffffffffffffff167fddf252ad1be2c89b69c2b068fc378daa952ba7f163c4a11628f55a4df523b3ef8360405161095c9190610bc4565b60405180910390a3505050565b60008082846109789190610da1565b9050838110156109bd576040517f08c379a00000000000000000000000000000000000000000000000000000000081526004016109b490610e21565b60405180910390fd5b8091505092915050565b600081519050919050565b600082825260208201905092915050565b60005b83811015610a015780820151818401526020810190506109e6565b60008484015250505050565b6000601f19601f8301169050919050565b6000610a29826109c7565b610a3381856109d2565b9350610a438185602086016109e3565b610a4c81610a0d565b840191505092915050565b60006020820190508181036000830152610a718184610a1e565b905092915050565b600080fd5b600073ffffffffffffffffffffffffffffffffffffffff82169050919050565b6000610aa982610a7e565b9050919050565b610ab981610a9e565b8114610ac457600080fd5b50565b600081359050610ad681610ab0565b92915050565b6000819050919050565b610aef81610adc565b8114610afa57600080fd5b50565b600081359050610b0c81610ae6565b92915050565b60008060408385031215610b2957610b28610a79565b5b6000610b3785828601610ac7565b9250506020610b4885828601610afd565b9150509250929050565b60008115159050919050565b610b6781610b52565b82525050565b6000602082019050610b826000830184610b5e565b92915050565b600060208284031215610b9e57610b9d610a79565b5b6000610bac84828501610ac7565b91505092915050565b610bbe81610adc565b82525050565b6000602082019050610bd96000830184610bb5565b92915050565b600080600060608486031215610bf857610bf7610a79565b5b6000610c0686828701610ac7565b9350506020610c1786828701610ac7565b9250506040610c2886828701610afd565b9150509250925092565b60008060408385031215610c4957610c48610a79565b5b6000610c5785828601610ac7565b9250506020610c6885828601610ac7565b9150509250929050565b7f4e487b7100000000000000000000000000000000000000000000000000000000600052602260045260246000fd5b60006002820490506001821680610cb957607f821691505b602082108103610ccc57610ccb610c72565b5b50919050565b7f536166654d6174683a207375627472616374696f6e206f766572666c6f770000600082015250565b6000610d08601e836109d2565b9150610d1382610cd2565b602082019050919050565b60006020820190508181036000830152610d3781610cfb565b9050919050565b7f4e487b7100000000000000000000000000000000000000000000000000000000600052601160045260246000fd5b6000610d7882610adc565b9150610d8383610adc565b9250828203905081811115610d9b57610d9a610d3e565b5b92915050565b6000610dac82610adc565b9150610db783610adc565b9250828201905080821115610dcf57610dce610d3e565b5b92915050565b7f536166654d6174683a206164646974696f6e206f766572666c6f770000000000600082015250565b6000610e0b601b836109d2565b9150610e1682610dd5565b602082019050919050565b60006020820190508181036000830152610e3a81610dfe565b905091905056fea2646970667358221220a0b04c26e025926dd9d3a0bea11d184b765a3a0013d68d87708f6a493ddfaab464736f6c63430008150033",
  "immutableReferences": {},
  "source": "// SPDX-License-Identifier: GPL-3.0\npragma solidity >=0.7.0 <0.9.0;\nimport \"openzeppelin-solidity/contracts/math/SafeMath.sol\";\n\ncontract LWB {\n    using SafeMath for uint256; //1uint256 sub add\n\n    string public name = \"LWB\";\n    string public symbol = \"LWB\";\n\n    uint256 public decimals = 18;\n    uint256 public totalSupply;\n\n    mapping(address => uint256) public blanceOf;\n\n    //\n    mapping(address => mapping(address=>uint256)) public allowance;\n\n    constructor() {\n        totalSupply = 1000000 * (10 ** decimals);\n        //\n        blanceOf[msg.sender] = totalSupply;\n    }\n\n    event Transfer(address indexed _form, address indexed _to, uint256 _value);\n    event Approve(address indexed _owner, address indexed _spender, uint256 _value);\n\n    function _transfer(\n        address _from,\n        address _to,\n        uint256 _value\n    ) internal {\n        require(_to != address(0));\n        require(blanceOf[_from] >= _value);\n        blanceOf[_from] = blanceOf[_from].sub(_value);\n        blanceOf[_to] = blanceOf[_to].add(_value);\n\n        // \n        emit Transfer(_from, _to, _value);\n    }\n\n    function transfer(\n        address _to,\n        uint256 _value\n    ) public returns (bool success) {\n        require(_to != address(0));\n        _transfer(msg.sender, _to, _value);\n        return true;  \n    }\n\n    function approve (\n        address _spender, \n        uint256 _value\n    ) public returns (bool success) {\n        require(_spender != address(0));\n        allowance[msg.sender][_spender] = _value;\n        emit Approve(msg.sender, _spender, _value);\n        return true;\n    }\n    //\n    function transferFrom(address _from, address _to, uint256 _value) public returns(bool success){\n        require(blanceOf[_from] >= _value);\n        require(allowance[_from][msg.sender] >= _value);\n        allowance[_from][msg.sender] = allowance[_from][msg.sender].sub(_value);\n        _transfer(_from, _to, _value);\n        return true;\n    }\n}\n",
  "sourcePath": "/Users/luweijun/Desktop/webpack/contracts/LWB.sol",
  "compiler": {
    "name": "solc",
    "version": "0.8.21+commit.d9974bed.Emscripten.clang"
  },
  "schemaVersion": "3.4.16",
  "updatedAt": "2025-02-23T13:09:06.558Z",
  "networkType": "ethereum",
  "devdoc": {
    "kind": "dev",
    "methods": {},
    "version": 1
  },
  "userdoc": {
    "kind": "user",
    "methods": {},
    "version": 1
  }
}