{
  "contractName": "StudentStorage",
  "abi": [
    {
      "inputs": [
        {
          "internalType": "uint256",
          "name": "",
          "type": "uint256"
        }
      ],
      "name": "studentList",
      "outputs": [
        {
          "internalType": "uint256",
          "name": "id",
          "type": "uint256"
        },
        {
          "internalType": "string",
          "name": "name",
          "type": "string"
        },
        {
          "internalType": "uint256",
          "name": "age",
          "type": "uint256"
        },
        {
          "internalType": "address",
          "name": "account",
          "type": "address"
        }
      ],
      "stateMutability": "view",
      "type": "function",
      "constant": true
    },
    {
      "inputs": [
        {
          "internalType": "string",
          "name": "_name",
          "type": "string"
        },
        {
          "internalType": "uint256",
          "name": "_age",
          "type": "uint256"
        }
      ],
      "name": "addList",
      "outputs": [
        {
          "internalType": "uint256",
          "name": "",
          "type": "uint256"
        }
      ],
      "stateMutability": "nonpayable",
      "type": "function"
    },
    {
      "inputs": [],
      "name": "getDate",
      "outputs": [
        {
          "components": [
            {
              "internalType": "uint256",
              "name": "id",
              "type": "uint256"
            },
            {
              "internalType": "string",
              "name": "name",
              "type": "string"
            },
            {
              "internalType": "uint256",
              "name": "age",
              "type": "uint256"
            },
            {
              "internalType": "address",
              "name": "account",
              "type": "address"
            }
          ],
          "internalType": "struct StudentStorage.Student[]",
          "name": "",
          "type": "tuple[]"
        }
      ],
      "stateMutability": "view",
      "type": "function",
      "constant": true
    }
  ],
  "bytecode": "0x608060405234801561001057600080fd5b50610ca3806100206000396000f3fe608060405234801561001057600080fd5b506004361061005e576000357c010000000000000000000000000000000000000000000000000000000090048063430fe9c1146100635780636b29d35f146100815780637df221e9146100b1575b600080fd5b61006b6100e4565b6040516100789190610637565b60405180910390f35b61009b600480360381019061009691906107ce565b61023f565b6040516100a89190610839565b60405180910390f35b6100cb60048036038101906100c69190610854565b610340565b6040516100db94939291906108da565b60405180910390f35b60606000805480602002602001604051908101604052809291908181526020016000905b8282101561023657838290600052602060002090600402016040518060800160405290816000820154815260200160018201805461014590610955565b80601f016020809104026020016040519081016040528092919081815260200182805461017190610955565b80156101be5780601f10610193576101008083540402835291602001916101be565b820191906000526020600020905b8154815290600101906020018083116101a157829003601f168201915b50505050508152602001600282015481526020016003820160009054906101000a900473ffffffffffffffffffffffffffffffffffffffff1673ffffffffffffffffffffffffffffffffffffffff1673ffffffffffffffffffffffffffffffffffffffff168152505081526020019060010190610108565b50505050905090565b6000806000805490509050600060018261025991906109b5565b9050600060405180608001604052808381526020018781526020018681526020013373ffffffffffffffffffffffffffffffffffffffff1681525090806001815401808255809150506001900390600052602060002090600402016000909190919091506000820151816000015560208201518160010190816102dc9190610b9b565b506040820151816002015560608201518160030160006101000a81548173ffffffffffffffffffffffffffffffffffffffff021916908373ffffffffffffffffffffffffffffffffffffffff16021790555050506000805490509250505092915050565b6000818154811061035057600080fd5b906000526020600020906004020160009150905080600001549080600101805461037990610955565b80601f01602080910402602001604051908101604052809291908181526020018280546103a590610955565b80156103f25780601f106103c7576101008083540402835291602001916103f2565b820191906000526020600020905b8154815290600101906020018083116103d557829003601f168201915b5050505050908060020154908060030160009054906101000a900473ffffffffffffffffffffffffffffffffffffffff16905084565b600081519050919050565b600082825260208201905092915050565b6000819050602082019050919050565b6000819050919050565b61046781610454565b82525050565b600081519050919050565b600082825260208201905092915050565b60005b838110156104a757808201518184015260208101905061048c565b60008484015250505050565b6000601f19601f8301169050919050565b60006104cf8261046d565b6104d98185610478565b93506104e9818560208601610489565b6104f2816104b3565b840191505092915050565b600073ffffffffffffffffffffffffffffffffffffffff82169050919050565b6000610528826104fd565b9050919050565b6105388161051d565b82525050565b6000608083016000830151610556600086018261045e565b506020830151848203602086015261056e82826104c4565b9150506040830151610583604086018261045e565b506060830151610596606086018261052f565b508091505092915050565b60006105ad838361053e565b905092915050565b6000602082019050919050565b60006105cd82610428565b6105d78185610433565b9350836020820285016105e985610444565b8060005b85811015610625578484038952815161060685826105a1565b9450610611836105b5565b925060208a019950506001810190506105ed565b50829750879550505050505092915050565b6000602082019050818103600083015261065181846105c2565b905092915050565b6000604051905090565b600080fd5b600080fd5b600080fd5b600080fd5b7f4e487b7100000000000000000000000000000000000000000000000000000000600052604160045260246000fd5b6106af826104b3565b810181811067ffffffffffffffff821117156106ce576106cd610677565b5b80604052505050565b60006106e1610659565b90506106ed82826106a6565b919050565b600067ffffffffffffffff82111561070d5761070c610677565b5b610716826104b3565b9050602081019050919050565b82818337600083830152505050565b6000610745610740846106f2565b6106d7565b90508281526020810184848401111561076157610760610672565b5b61076c848285610723565b509392505050565b600082601f8301126107895761078861066d565b5b8135610799848260208601610732565b91505092915050565b6107ab81610454565b81146107b657600080fd5b50565b6000813590506107c8816107a2565b92915050565b600080604083850312156107e5576107e4610663565b5b600083013567ffffffffffffffff81111561080357610802610668565b5b61080f85828601610774565b9250506020610820858286016107b9565b9150509250929050565b61083381610454565b82525050565b600060208201905061084e600083018461082a565b92915050565b60006020828403121561086a57610869610663565b5b6000610878848285016107b9565b91505092915050565b600082825260208201905092915050565b600061089d8261046d565b6108a78185610881565b93506108b7818560208601610489565b6108c0816104b3565b840191505092915050565b6108d48161051d565b82525050565b60006080820190506108ef600083018761082a565b81810360208301526109018186610892565b9050610910604083018561082a565b61091d60608301846108cb565b95945050505050565b7f4e487b7100000000000000000000000000000000000000000000000000000000600052602260045260246000fd5b6000600282049050600182168061096d57607f821691505b6020821081036109805761097f610926565b5b50919050565b7f4e487b7100000000000000000000000000000000000000000000000000000000600052601160045260246000fd5b60006109c082610454565b91506109cb83610454565b92508282019050808211156109e3576109e2610986565b5b92915050565b60008190508160005260206000209050919050565b60006020601f8301049050919050565b60008160020a8302905092915050565b600060088302610a4e7fffffffffffffffffffffffffffffffffffffffffffffffffffffffffffffffff82610a0e565b610a588683610a0e565b95508019841693508086168417925050509392505050565b6000819050919050565b6000610a95610a90610a8b84610454565b610a70565b610454565b9050919050565b6000819050919050565b610aaf83610a7a565b610ac3610abb82610a9c565b848454610a1e565b825550505050565b600090565b610ad8610acb565b610ae3818484610aa6565b505050565b5b81811015610b0757610afc600082610ad0565b600181019050610ae9565b5050565b601f821115610b4c57610b1d816109e9565b610b26846109fe565b81016020851015610b35578190505b610b49610b41856109fe565b830182610ae8565b50505b505050565b60008160020a8304905092915050565b6000610b7260001984600802610b51565b1980831691505092915050565b6000610b8b8383610b61565b9150826002028217905092915050565b610ba48261046d565b67ffffffffffffffff811115610bbd57610bbc610677565b5b610bc78254610955565b610bd2828285610b0b565b600060209050601f831160018114610c055760008415610bf3578287015190505b610bfd8582610b7f565b865550610c65565b601f198416610c13866109e9565b60005b82811015610c3b57848901518255600182019150602085019450602081019050610c16565b86831015610c585784890151610c54601f891682610b61565b8355505b6001600288020188555050505b50505050505056fea26469706673582212201002b3d4e71537b6dec3a3b9abfd991319c19f4a09904d77f0efd8b0de2787c264736f6c63430008150033",
  "immutableReferences": {},
  "source": "// SPDX-License-Identifier: GPL-3.0\npragma solidity >=0.7.0 <0.9.0;\n\ncontract StudentStorage {\n    struct Student {\n        uint id;\n        string name;\n        uint age;\n        address account;\n    }\n\n    //\n    Student[] public studentList;\n\n    function addList(string memory _name, uint _age) public returns (uint) {\n        uint count = studentList.length;\n        uint id = count + 1;\n        studentList.push(Student(id, _name, _age, msg.sender));\n        return studentList.length;\n    }\n\n    //view , pure \n    function getDate() public view returns (Student[] memory) {\n        return studentList;\n    }\n}\n",
  "sourcePath": "/Users/luweijun/Desktop/webpack/contracts/StudentStorage.sol",
  "compiler": {
    "name": "solc",
    "version": "0.8.21+commit.d9974bed.Emscripten.clang"
  },
  "schemaVersion": "3.4.16",
  "updatedAt": "2025-02-21T14:13:45.501Z",
  "networkType": "ethereum",
  "devdoc": {
    "kind": "dev",
    "methods": {},
    "version": 1
  },
  "userdoc": {
    "kind": "user",
    "methods": {},
    "version": 1
  }
}