{
  "contractName": "StudentStorage",
  "abi": [
    {
      "inputs": [
        {
          "internalType": "uint256",
          "name": "",
          "type": "uint256"
        }
      ],
      "name": "studentList",
      "outputs": [
        {
          "internalType": "uint256",
          "name": "id",
          "type": "uint256"
        },
        {
          "internalType": "string",
          "name": "name",
          "type": "string"
        },
        {
          "internalType": "uint256",
          "name": "age",
          "type": "uint256"
        }
      ],
      "stateMutability": "view",
      "type": "function",
      "constant": true
    },
    {
      "inputs": [
        {
          "internalType": "string",
          "name": "_name",
          "type": "string"
        },
        {
          "internalType": "uint256",
          "name": "_age",
          "type": "uint256"
        }
      ],
      "name": "addList",
      "outputs": [
        {
          "internalType": "uint256",
          "name": "",
          "type": "uint256"
        }
      ],
      "stateMutability": "nonpayable",
      "type": "function"
    },
    {
      "inputs": [],
      "name": "getDate",
      "outputs": [
        {
          "components": [
            {
              "internalType": "uint256",
              "name": "id",
              "type": "uint256"
            },
            {
              "internalType": "string",
              "name": "name",
              "type": "string"
            },
            {
              "internalType": "uint256",
              "name": "age",
              "type": "uint256"
            }
          ],
          "internalType": "struct StudentStorage.Student[]",
          "name": "",
          "type": "tuple[]"
        }
      ],
      "stateMutability": "view",
      "type": "function",
      "constant": true
    }
  ],
  "bytecode": "0x608060405234801561001057600080fd5b50610b52806100206000396000f3fe608060405234801561001057600080fd5b506004361061005e576000357c010000000000000000000000000000000000000000000000000000000090048063430fe9c1146100635780636b29d35f146100815780637df221e9146100b1575b600080fd5b61006b6100e3565b6040516100789190610503565b60405180910390f35b61009b6004803603810190610096919061069a565b6101e8565b6040516100a89190610705565b60405180910390f35b6100cb60048036038101906100c69190610720565b610286565b6040516100da93929190610797565b60405180910390f35b60606000805480602002602001604051908101604052809291908181526020016000905b828210156101df57838290600052602060002090600302016040518060600160405290816000820154815260200160018201805461014490610804565b80601f016020809104026020016040519081016040528092919081815260200182805461017090610804565b80156101bd5780601f10610192576101008083540402835291602001916101bd565b820191906000526020600020905b8154815290600101906020018083116101a057829003601f168201915b5050505050815260200160028201548152505081526020019060010190610107565b50505050905090565b600080600080549050905060006001826102029190610864565b9050600060405180606001604052808381526020018781526020018681525090806001815401808255809150506001900390600052602060002090600302016000909190919091506000820151816000015560208201518160010190816102699190610a4a565b506040820151816002015550506000805490509250505092915050565b6000818154811061029657600080fd5b90600052602060002090600302016000915090508060000154908060010180546102bf90610804565b80601f01602080910402602001604051908101604052809291908181526020018280546102eb90610804565b80156103385780601f1061030d57610100808354040283529160200191610338565b820191906000526020600020905b81548152906001019060200180831161031b57829003601f168201915b5050505050908060020154905083565b600081519050919050565b600082825260208201905092915050565b6000819050602082019050919050565b6000819050919050565b61038781610374565b82525050565b600081519050919050565b600082825260208201905092915050565b60005b838110156103c75780820151818401526020810190506103ac565b60008484015250505050565b6000601f19601f8301169050919050565b60006103ef8261038d565b6103f98185610398565b93506104098185602086016103a9565b610412816103d3565b840191505092915050565b6000606083016000830151610435600086018261037e565b506020830151848203602086015261044d82826103e4565b9150506040830151610462604086018261037e565b508091505092915050565b6000610479838361041d565b905092915050565b6000602082019050919050565b600061049982610348565b6104a38185610353565b9350836020820285016104b585610364565b8060005b858110156104f157848403895281516104d2858261046d565b94506104dd83610481565b925060208a019950506001810190506104b9565b50829750879550505050505092915050565b6000602082019050818103600083015261051d818461048e565b905092915050565b6000604051905090565b600080fd5b600080fd5b600080fd5b600080fd5b7f4e487b7100000000000000000000000000000000000000000000000000000000600052604160045260246000fd5b61057b826103d3565b810181811067ffffffffffffffff8211171561059a57610599610543565b5b80604052505050565b60006105ad610525565b90506105b98282610572565b919050565b600067ffffffffffffffff8211156105d9576105d8610543565b5b6105e2826103d3565b9050602081019050919050565b82818337600083830152505050565b600061061161060c846105be565b6105a3565b90508281526020810184848401111561062d5761062c61053e565b5b6106388482856105ef565b509392505050565b600082601f83011261065557610654610539565b5b81356106658482602086016105fe565b91505092915050565b61067781610374565b811461068257600080fd5b50565b6000813590506106948161066e565b92915050565b600080604083850312156106b1576106b061052f565b5b600083013567ffffffffffffffff8111156106cf576106ce610534565b5b6106db85828601610640565b92505060206106ec85828601610685565b9150509250929050565b6106ff81610374565b82525050565b600060208201905061071a60008301846106f6565b92915050565b6000602082840312156107365761073561052f565b5b600061074484828501610685565b91505092915050565b600082825260208201905092915050565b60006107698261038d565b610773818561074d565b93506107838185602086016103a9565b61078c816103d3565b840191505092915050565b60006060820190506107ac60008301866106f6565b81810360208301526107be818561075e565b90506107cd60408301846106f6565b949350505050565b7f4e487b7100000000000000000000000000000000000000000000000000000000600052602260045260246000fd5b6000600282049050600182168061081c57607f821691505b60208210810361082f5761082e6107d5565b5b50919050565b7f4e487b7100000000000000000000000000000000000000000000000000000000600052601160045260246000fd5b600061086f82610374565b915061087a83610374565b925082820190508082111561089257610891610835565b5b92915050565b60008190508160005260206000209050919050565b60006020601f8301049050919050565b60008160020a8302905092915050565b6000600883026108fd7fffffffffffffffffffffffffffffffffffffffffffffffffffffffffffffffff826108bd565b61090786836108bd565b95508019841693508086168417925050509392505050565b6000819050919050565b600061094461093f61093a84610374565b61091f565b610374565b9050919050565b6000819050919050565b61095e83610929565b61097261096a8261094b565b8484546108cd565b825550505050565b600090565b61098761097a565b610992818484610955565b505050565b5b818110156109b6576109ab60008261097f565b600181019050610998565b5050565b601f8211156109fb576109cc81610898565b6109d5846108ad565b810160208510156109e4578190505b6109f86109f0856108ad565b830182610997565b50505b505050565b60008160020a8304905092915050565b6000610a2160001984600802610a00565b1980831691505092915050565b6000610a3a8383610a10565b9150826002028217905092915050565b610a538261038d565b67ffffffffffffffff811115610a6c57610a6b610543565b5b610a768254610804565b610a818282856109ba565b600060209050601f831160018114610ab45760008415610aa2578287015190505b610aac8582610a2e565b865550610b14565b601f198416610ac286610898565b60005b82811015610aea57848901518255600182019150602085019450602081019050610ac5565b86831015610b075784890151610b03601f891682610a10565b8355505b6001600288020188555050505b50505050505056fea2646970667358221220f0e38db90a5397bc30bac026b1398988768332cac88c8d7edd1ab9536d4eaa0e64736f6c63430008150033",
  "immutableReferences": {},
  "source": "// SPDX-License-Identifier: GPL-3.0\npragma solidity >=0.7.0 <0.9.0;\n\ncontract StudentStorage {\n    struct Student {\n        uint id;\n        string name;\n        uint age;\n    }\n    //\n    Student[] public studentList;\n\n    function addList(string memory _name, uint _age) public returns (uint) {\n        uint count = studentList.length;\n        uint id = count + 1;\n        studentList.push(Student(id, _name, _age));\n        return studentList.length;\n    }\n\n    //view , pure \n    function getDate() public view returns (Student[] memory) {\n        return studentList;\n    }\n}\n",
  "sourcePath": "/Users/luweijun/Desktop/webpack/contracts/StudentStorage.sol",
  "compiler": {
    "name": "solc",
    "version": "0.8.21+commit.d9974bed.Emscripten.clang"
  },
  "schemaVersion": "3.4.16",
  "updatedAt": "2025-02-20T15:54:28.156Z",
  "networkType": "ethereum",
  "devdoc": {
    "kind": "dev",
    "methods": {},
    "version": 1
  },
  "userdoc": {
    "kind": "user",
    "methods": {},
    "version": 1
  }
}